{
  "_format": "hh-sol-artifact-1",
  "contractName": "Random",
  "sourceName": "contracts/Ramdom.sol",
  "abi": [
    {
      "inputs": [],
      "stateMutability": "nonpayable",
      "type": "constructor"
    },
    {
      "anonymous": false,
      "inputs": [
        {
          "indexed": false,
          "internalType": "uint256",
          "name": "gameId",
          "type": "uint256"
        },
        {
          "indexed": false,
          "internalType": "address",
          "name": "winner",
          "type": "address"
        },
        {
          "indexed": false,
          "internalType": "bytes32",
          "name": "requestId",
          "type": "bytes32"
        }
      ],
      "name": "GameEnded",
      "type": "event"
    },
    {
      "anonymous": false,
      "inputs": [
        {
          "indexed": false,
          "internalType": "uint256",
          "name": "gameId",
          "type": "uint256"
        },
        {
          "indexed": false,
          "internalType": "uint256",
          "name": "maxPlayers",
          "type": "uint256"
        },
        {
          "indexed": false,
          "internalType": "uint256",
          "name": "entryFee",
          "type": "uint256"
        }
      ],
      "name": "GameStarted",
      "type": "event"
    },
    {
      "anonymous": false,
      "inputs": [
        {
          "indexed": true,
          "internalType": "address",
          "name": "previousOwner",
          "type": "address"
        },
        {
          "indexed": true,
          "internalType": "address",
          "name": "newOwner",
          "type": "address"
        }
      ],
      "name": "OwnershipTransferred",
      "type": "event"
    },
    {
      "anonymous": false,
      "inputs": [
        {
          "indexed": false,
          "internalType": "uint256",
          "name": "gameId",
          "type": "uint256"
        },
        {
          "indexed": false,
          "internalType": "address",
          "name": "player",
          "type": "address"
        }
      ],
      "name": "PlayerJoined",
      "type": "event"
    },
    {
      "stateMutability": "payable",
      "type": "fallback"
    },
    {
      "inputs": [],
      "name": "endGame",
      "outputs": [],
      "stateMutability": "nonpayable",
      "type": "function"
    },
    {
      "inputs": [],
      "name": "entryFee",
      "outputs": [
        {
          "internalType": "uint256",
          "name": "",
          "type": "uint256"
        }
      ],
      "stateMutability": "view",
      "type": "function"
    },
    {
      "inputs": [],
      "name": "fee",
      "outputs": [
        {
          "internalType": "uint256",
          "name": "",
          "type": "uint256"
        }
      ],
      "stateMutability": "view",
      "type": "function"
    },
    {
      "inputs": [],
      "name": "gameId",
      "outputs": [
        {
          "internalType": "uint256",
          "name": "",
          "type": "uint256"
        }
      ],
      "stateMutability": "view",
      "type": "function"
    },
    {
      "inputs": [],
      "name": "gameStarted",
      "outputs": [
        {
          "internalType": "bool",
          "name": "",
          "type": "bool"
        }
      ],
      "stateMutability": "view",
      "type": "function"
    },
    {
      "inputs": [],
      "name": "getRandomWinner",
      "outputs": [
        {
          "internalType": "bytes32",
          "name": "requestId",
          "type": "bytes32"
        }
      ],
      "stateMutability": "nonpayable",
      "type": "function"
    },
    {
      "inputs": [],
      "name": "joinGame",
      "outputs": [],
      "stateMutability": "payable",
      "type": "function"
    },
    {
      "inputs": [],
      "name": "keyHash",
      "outputs": [
        {
          "internalType": "bytes32",
          "name": "",
          "type": "bytes32"
        }
      ],
      "stateMutability": "view",
      "type": "function"
    },
    {
      "inputs": [],
      "name": "maxPlayers",
      "outputs": [
        {
          "internalType": "uint256",
          "name": "",
          "type": "uint256"
        }
      ],
      "stateMutability": "view",
      "type": "function"
    },
    {
      "inputs": [],
      "name": "owner",
      "outputs": [
        {
          "internalType": "address",
          "name": "",
          "type": "address"
        }
      ],
      "stateMutability": "view",
      "type": "function"
    },
    {
      "inputs": [
        {
          "internalType": "uint256",
          "name": "",
          "type": "uint256"
        }
      ],
      "name": "players",
      "outputs": [
        {
          "internalType": "address",
          "name": "",
          "type": "address"
        }
      ],
      "stateMutability": "view",
      "type": "function"
    },
    {
      "inputs": [
        {
          "internalType": "bytes32",
          "name": "requestId",
          "type": "bytes32"
        },
        {
          "internalType": "uint256",
          "name": "randomness",
          "type": "uint256"
        }
      ],
      "name": "rawFulfillRandomness",
      "outputs": [],
      "stateMutability": "nonpayable",
      "type": "function"
    },
    {
      "inputs": [],
      "name": "renounceOwnership",
      "outputs": [],
      "stateMutability": "nonpayable",
      "type": "function"
    },
    {
      "inputs": [
        {
          "internalType": "uint256",
          "name": "_maxPlayers",
          "type": "uint256"
        },
        {
          "internalType": "uint256",
          "name": "_entryFee",
          "type": "uint256"
        }
      ],
      "name": "startGame",
      "outputs": [],
      "stateMutability": "nonpayable",
      "type": "function"
    },
    {
      "inputs": [
        {
          "internalType": "address",
          "name": "newOwner",
          "type": "address"
        }
      ],
      "name": "transferOwnership",
      "outputs": [],
      "stateMutability": "nonpayable",
      "type": "function"
    },
    {
      "stateMutability": "payable",
      "type": "receive"
    }
  ],
  "bytecode": "0x60c060405234801561001057600080fd5b50738c7382f9d8f56b33781fe506e897a4f1e2d1725573326c977e6efc84e512bb9c30f76e30c160ed06fb8173ffffffffffffffffffffffffffffffffffffffff1660a08173ffffffffffffffffffffffffffffffffffffffff16815250508073ffffffffffffffffffffffffffffffffffffffff1660808173ffffffffffffffffffffffffffffffffffffffff168152505050506100c16100b66100fd60201b60201c565b61010560201b60201c565b7f6e75b569a01ef56d18cab6a8e71e6600d6ce853834d4a5748b720d06f878b3a460001b600381905550655af3107a40006002819055506101cb565b600033905090565b6000600160009054906101000a900473ffffffffffffffffffffffffffffffffffffffff16905081600160006101000a81548173ffffffffffffffffffffffffffffffffffffffff021916908373ffffffffffffffffffffffffffffffffffffffff1602179055508173ffffffffffffffffffffffffffffffffffffffff168173ffffffffffffffffffffffffffffffffffffffff167f8be0079c531659141344cd1fd0a4f28419497f9722a3daafe3b4186f6b6457e060405160405180910390a35050565b60805160a0516118f56101fe600039600081816105e3015261092701526000818161036901526108eb01526118f56000f3fe6080604052600436106100ec5760003560e01c8063730b83811161008a578063d7c81b5511610059578063d7c81b5514610281578063ddca3f43146102ac578063f2fde38b146102d7578063f71d96cb14610300576100f3565b8063730b8381146101fa5780638da5cb5b1461022357806394985ddd1461024e578063d4f77b1c14610277576100f3565b806361728f39116100c657806361728f39146101765780636694f1a5146101a15780636cbc2ded146101cc578063715018a6146101e3576100f3565b8063072ea61c146100f55780634c2412a2146101205780635e123ce41461014b576100f3565b366100f357005b005b34801561010157600080fd5b5061010a61033d565b6040516101179190610dac565b60405180910390f35b34801561012c57600080fd5b50610135610343565b6040516101429190610dac565b60405180910390f35b34801561015757600080fd5b50610160610349565b60405161016d9190610de2565b60405180910390f35b34801561018257600080fd5b5061018b61035c565b6040516101989190610e16565b60405180910390f35b3480156101ad57600080fd5b506101b6610362565b6040516101c39190610e16565b60405180910390f35b3480156101d857600080fd5b506101e1610455565b005b3480156101ef57600080fd5b506101f8610472565b005b34801561020657600080fd5b50610221600480360381019061021c9190610e62565b610486565b005b34801561022f57600080fd5b506102386105b7565b6040516102459190610ee3565b60405180910390f35b34801561025a57600080fd5b5061027560048036038101906102709190610f2a565b6105e1565b005b61027f61067d565b005b34801561028d57600080fd5b50610296610819565b6040516102a39190610dac565b60405180910390f35b3480156102b857600080fd5b506102c161081f565b6040516102ce9190610dac565b60405180910390f35b3480156102e357600080fd5b506102fe60048036038101906102f99190610f96565b610825565b005b34801561030c57600080fd5b5061032760048036038101906103229190610fc3565b6108a8565b6040516103349190610ee3565b60405180910390f35b60075481565b60055481565b600660009054906101000a900460ff1681565b60035481565b60006002547f000000000000000000000000000000000000000000000000000000000000000073ffffffffffffffffffffffffffffffffffffffff166370a08231306040518263ffffffff1660e01b81526004016103c09190610ee3565b602060405180830381865afa1580156103dd573d6000803e3d6000fd5b505050506040513d601f19601f820116820180604052508101906104019190611005565b1015610442576040517f08c379a00000000000000000000000000000000000000000000000000000000081526004016104399061108f565b60405180910390fd5b6104506003546002546108e7565b905090565b6000600660006101000a81548160ff021916908315150217905550565b61047a610a37565b6104846000610ab5565b565b61048e610a37565b600660009054906101000a900460ff16156104de576040517f08c379a00000000000000000000000000000000000000000000000000000000081526004016104d5906110fb565b60405180910390fd5b60008211610521576040517f08c379a00000000000000000000000000000000000000000000000000000000081526004016105189061118d565b60405180910390fd5b6004600061052f9190610d55565b816005819055506001600660006101000a81548160ff0219169083151502179055508060078190555060016008600082825461056b91906111dc565b925050819055507fedb371157a97763aaa1b348e6811cbb8c9eb299aaf93a6f5ba91f312bcb40fcf6008546005546007546040516105ab93929190611210565b60405180910390a15050565b6000600160009054906101000a900473ffffffffffffffffffffffffffffffffffffffff16905090565b7f000000000000000000000000000000000000000000000000000000000000000073ffffffffffffffffffffffffffffffffffffffff163373ffffffffffffffffffffffffffffffffffffffff161461066f576040517f08c379a000000000000000000000000000000000000000000000000000000000815260040161066690611293565b60405180910390fd5b6106798282610b7b565b5050565b60011515600660009054906101000a900460ff161515146106d3576040517f08c379a00000000000000000000000000000000000000000000000000000000081526004016106ca906112ff565b60405180910390fd5b600754341015610718576040517f08c379a000000000000000000000000000000000000000000000000000000000815260040161070f90611391565b60405180910390fd5b60055460048054905010610761576040517f08c379a0000000000000000000000000000000000000000000000000000000008152600401610758906113fd565b60405180910390fd5b6004339080600181540180825580915050600190039060005260206000200160009091909190916101000a81548173ffffffffffffffffffffffffffffffffffffffff021916908373ffffffffffffffffffffffffffffffffffffffff1602179055507f87969bc7faf902221a147b95ceba76e011c5efb0339a0a8ee7a2bb82d9cfbbd6600854336040516107f792919061141d565b60405180910390a16005546004805490500361081757610815610362565b505b565b60085481565b60025481565b61082d610a37565b600073ffffffffffffffffffffffffffffffffffffffff168173ffffffffffffffffffffffffffffffffffffffff160361089c576040517f08c379a0000000000000000000000000000000000000000000000000000000008152600401610893906114b8565b60405180910390fd5b6108a581610ab5565b50565b600481815481106108b857600080fd5b906000526020600020016000915054906101000a900473ffffffffffffffffffffffffffffffffffffffff1681565b60007f000000000000000000000000000000000000000000000000000000000000000073ffffffffffffffffffffffffffffffffffffffff16634000aea07f00000000000000000000000000000000000000000000000000000000000000008486600060405160200161095b9291906114d8565b6040516020818303038152906040526040518463ffffffff1660e01b815260040161098893929190611591565b6020604051808303816000875af11580156109a7573d6000803e3d6000fd5b505050506040513d601f19601f820116820180604052508101906109cb91906115fb565b5060006109ed8460003060008089815260200190815260200160002054610cde565b9050600160008086815260200190815260200160002054610a0e91906111dc565b60008086815260200190815260200160002081905550610a2e8482610d1a565b91505092915050565b610a3f610d4d565b73ffffffffffffffffffffffffffffffffffffffff16610a5d6105b7565b73ffffffffffffffffffffffffffffffffffffffff1614610ab3576040517f08c379a0000000000000000000000000000000000000000000000000000000008152600401610aaa90611674565b60405180910390fd5b565b6000600160009054906101000a900473ffffffffffffffffffffffffffffffffffffffff16905081600160006101000a81548173ffffffffffffffffffffffffffffffffffffffff021916908373ffffffffffffffffffffffffffffffffffffffff1602179055508173ffffffffffffffffffffffffffffffffffffffff168173ffffffffffffffffffffffffffffffffffffffff167f8be0079c531659141344cd1fd0a4f28419497f9722a3daafe3b4186f6b6457e060405160405180910390a35050565b600060048054905082610b8e91906116c3565b9050600060048281548110610ba657610ba56116f4565b5b9060005260206000200160009054906101000a900473ffffffffffffffffffffffffffffffffffffffff16905060008173ffffffffffffffffffffffffffffffffffffffff1647604051610bf990611754565b60006040518083038185875af1925050503d8060008114610c36576040519150601f19603f3d011682016040523d82523d6000602084013e610c3b565b606091505b5050905080610c7f576040517f08c379a0000000000000000000000000000000000000000000000000000000008152600401610c76906117b5565b60405180910390fd5b7fd2da138ec4b828f6f1dd931eea0488e41e941f7cda657ad8f524ede8cb2c7ce06008548387604051610cb4939291906117d5565b60405180910390a16000600660006101000a81548160ff0219169083151502179055505050505050565b600084848484604051602001610cf7949392919061180c565b6040516020818303038152906040528051906020012060001c9050949350505050565b60008282604051602001610d2f929190611893565b60405160208183030381529060405280519060200120905092915050565b600033905090565b5080546000825590600052602060002090810190610d739190610d76565b50565b5b80821115610d8f576000816000905550600101610d77565b5090565b6000819050919050565b610da681610d93565b82525050565b6000602082019050610dc16000830184610d9d565b92915050565b60008115159050919050565b610ddc81610dc7565b82525050565b6000602082019050610df76000830184610dd3565b92915050565b6000819050919050565b610e1081610dfd565b82525050565b6000602082019050610e2b6000830184610e07565b92915050565b600080fd5b610e3f81610d93565b8114610e4a57600080fd5b50565b600081359050610e5c81610e36565b92915050565b60008060408385031215610e7957610e78610e31565b5b6000610e8785828601610e4d565b9250506020610e9885828601610e4d565b9150509250929050565b600073ffffffffffffffffffffffffffffffffffffffff82169050919050565b6000610ecd82610ea2565b9050919050565b610edd81610ec2565b82525050565b6000602082019050610ef86000830184610ed4565b92915050565b610f0781610dfd565b8114610f1257600080fd5b50565b600081359050610f2481610efe565b92915050565b60008060408385031215610f4157610f40610e31565b5b6000610f4f85828601610f15565b9250506020610f6085828601610e4d565b9150509250929050565b610f7381610ec2565b8114610f7e57600080fd5b50565b600081359050610f9081610f6a565b92915050565b600060208284031215610fac57610fab610e31565b5b6000610fba84828501610f81565b91505092915050565b600060208284031215610fd957610fd8610e31565b5b6000610fe784828501610e4d565b91505092915050565b600081519050610fff81610e36565b92915050565b60006020828403121561101b5761101a610e31565b5b600061102984828501610ff0565b91505092915050565b600082825260208201905092915050565b7f4e6f7420656e6f756768204c494e4b0000000000000000000000000000000000600082015250565b6000611079600f83611032565b915061108482611043565b602082019050919050565b600060208201905081810360008301526110a88161106c565b9050919050565b7f47616d652069732063757272656e746c792072756e6e696e6700000000000000600082015250565b60006110e5601983611032565b91506110f0826110af565b602082019050919050565b60006020820190508181036000830152611114816110d8565b9050919050565b7f596f752063616e6e6f742063726561746520612067616d652077697468206d6160008201527f7820706c6179657273206c696d697420657175616c2030000000000000000000602082015250565b6000611177603783611032565b91506111828261111b565b604082019050919050565b600060208201905081810360008301526111a68161116a565b9050919050565b7f4e487b7100000000000000000000000000000000000000000000000000000000600052601160045260246000fd5b60006111e782610d93565b91506111f283610d93565b925082820190508082111561120a576112096111ad565b5b92915050565b60006060820190506112256000830186610d9d565b6112326020830185610d9d565b61123f6040830184610d9d565b949350505050565b7f4f6e6c7920565246436f6f7264696e61746f722063616e2066756c66696c6c00600082015250565b600061127d601f83611032565b915061128882611247565b602082019050919050565b600060208201905081810360008301526112ac81611270565b9050919050565b7f47616d6520686173206e6f74206265656e207374617274656420796574000000600082015250565b60006112e9601d83611032565b91506112f4826112b3565b602082019050919050565b60006020820190508181036000830152611318816112dc565b9050919050565b7f56616c75652073656e74206973206e6f7420657175616c20746f20656e74727960008201527f4665650000000000000000000000000000000000000000000000000000000000602082015250565b600061137b602383611032565b91506113868261131f565b604082019050919050565b600060208201905081810360008301526113aa8161136e565b9050919050565b7f47616d652069732066756c6c0000000000000000000000000000000000000000600082015250565b60006113e7600c83611032565b91506113f2826113b1565b602082019050919050565b60006020820190508181036000830152611416816113da565b9050919050565b60006040820190506114326000830185610d9d565b61143f6020830184610ed4565b9392505050565b7f4f776e61626c653a206e6577206f776e657220697320746865207a65726f206160008201527f6464726573730000000000000000000000000000000000000000000000000000602082015250565b60006114a2602683611032565b91506114ad82611446565b604082019050919050565b600060208201905081810360008301526114d181611495565b9050919050565b60006040820190506114ed6000830185610e07565b6114fa6020830184610d9d565b9392505050565b600081519050919050565b600082825260208201905092915050565b60005b8381101561153b578082015181840152602081019050611520565b60008484015250505050565b6000601f19601f8301169050919050565b600061156382611501565b61156d818561150c565b935061157d81856020860161151d565b61158681611547565b840191505092915050565b60006060820190506115a66000830186610ed4565b6115b36020830185610d9d565b81810360408301526115c58184611558565b9050949350505050565b6115d881610dc7565b81146115e357600080fd5b50565b6000815190506115f5816115cf565b92915050565b60006020828403121561161157611610610e31565b5b600061161f848285016115e6565b91505092915050565b7f4f776e61626c653a2063616c6c6572206973206e6f7420746865206f776e6572600082015250565b600061165e602083611032565b915061166982611628565b602082019050919050565b6000602082019050818103600083015261168d81611651565b9050919050565b7f4e487b7100000000000000000000000000000000000000000000000000000000600052601260045260246000fd5b60006116ce82610d93565b91506116d983610d93565b9250826116e9576116e8611694565b5b828206905092915050565b7f4e487b7100000000000000000000000000000000000000000000000000000000600052603260045260246000fd5b600081905092915050565b50565b600061173e600083611723565b91506117498261172e565b600082019050919050565b600061175f82611731565b9150819050919050565b7f4661696c656420746f2073656e64204574686572000000000000000000000000600082015250565b600061179f601483611032565b91506117aa82611769565b602082019050919050565b600060208201905081810360008301526117ce81611792565b9050919050565b60006060820190506117ea6000830186610d9d565b6117f76020830185610ed4565b6118046040830184610e07565b949350505050565b60006080820190506118216000830187610e07565b61182e6020830186610d9d565b61183b6040830185610ed4565b6118486060830184610d9d565b95945050505050565b6000819050919050565b61186c61186782610dfd565b611851565b82525050565b6000819050919050565b61188d61188882610d93565b611872565b82525050565b600061189f828561185b565b6020820191506118af828461187c565b602082019150819050939250505056fea264697066735822122024bb7c54888d950873a19ba75a4085b0080eb2ea9d8de7b66ce918693924eed364736f6c63430008120033",
  "linkReferences": {},
  "deployedLinkReferences": {}
}